:020000040800F2
:1000000000040020C100000871400008C12300085E
:10001000C1230008C1230008C1230008C123000830
:10002000C1230008C1230008C1230008C123000820
:10003000C1230008C1230008C1230008C123000810
:10004000C1230008C1230008C1230008C123000800
:10005000C1230008C1230008C1230008C1230008F0
:10006000C1230008C1230008C1230008C1230008E0
:10007000C1230008C1230008C1230008C1230008D0
:10008000F1480008C1230008C1230008C12300086B
:10009000C1230008C1230008C1230008C1230008B0
:1000A000C1230008C1230008C1230008C1230008A0
:1000B000B14E0008E14E0008C1230008C12300082A
:1000C00072B6224880F30988022080F31488BFF3B7
:1000D0006F8F02F025F904F093FF1D481D491E4A59
:1000E000914202DA08600431FAE71C49174A91424A
:1000F00002DA08600431FAE719491A4A1A4B9A429F
:1001000004DA0868106004310432F8E70020174967
:10011000174A914202DA08600431FAE702F018F94E
:1001200002F006F9134C144DAC4203DA21688847FB
:100130000434F9E705F08CF8104C114DAC4203DAA9
:10014000216888470434F9E70E490847000C00206D
:1001500055555555000000200004002000040020E3
:1001600090990008000C0020BC150020C01500204C
:10017000681E0020C0000008C0000008C000000881
:10018000C00000084123000800000000000000003B
:10019000F0B544464D4656465F46F0B46B46CB60DC
:1001A000C3689D46F0BCA046A946B246BB46F0BD1A
:1001B00002F096FB62B6281CA047002003F080FAEC
:1001C00002F076FB03F08CF802F08AFB014A024B46
:1001D0001360FEE704ED00E0000000800000000076
:1001E000002243088B4274D303098B425FD3030A76
:1001F0008B4244D3030B8B4228D3030C8B420DD389
:10020000FF22090212BA030C8B4202D31212090216
:1002100065D0030B8B4219D300E0090AC30B8B4254
:1002200001D3CB03C01A5241830B8B4201D38B0302
:10023000C01A5241430B8B4201D34B03C01A5241A7
:10024000030B8B4201D30B03C01A5241C30A8B42EA
:1002500001D3CB02C01A5241830A8B4201D38B02D5
:10026000C01A5241430A8B4201D34B02C01A524179
:10027000030A8B4201D30B02C01A5241CDD2C309EB
:100280008B4201D3CB01C01A524183098B4201D367
:100290008B01C01A524143098B4201D34B01C01A52
:1002A000524103098B4201D30B01C01A5241C308CA
:1002B0008B4201D3CB00C01A524183088B4201D339
:1002C0008B00C01A524143088B4201D34B00C01A25
:1002D0005241411A00D20146524110467047FFE791
:1002E00001B5002000F00CF802BDC0460029F7D08F
:1002F00076E77047000000000000000000000000EA
:100300007047C04600000000000000000000000030
:1003100003460B437FD4002243088B4274D3030966
:100320008B425FD3030A8B4244D3030B8B4228D307
:10033000030C8B420DD3FF22090212BA030C8B422D
:1003400002D31212090265D0030B8B4219D300E0CD
:10035000090AC30B8B4201D3CB03C01A5241830B52
:100360008B4201D38B03C01A5241430B8B4201D302
:100370004B03C01A5241030B8B4201D30B03C01A2B
:100380005241C30A8B4201D3CB02C01A5241830AA5
:100390008B4201D38B02C01A5241430A8B4201D3D4
:1003A0004B02C01A5241030A8B4201D30B02C01AFE
:1003B0005241CDD2C3098B4201D3CB01C01A524165
:1003C00083098B4201D38B01C01A524143098B42EE
:1003D00001D34B01C01A524103098B4201D30B01D7
:1003E000C01A5241C3088B4201D3CB00C01A5241FC
:1003F00083088B4201D38B00C01A524143088B42C1
:1004000001D34B00C01A5241411A00D20146524159
:10041000104670475DE0CA0F00D04942031000D378
:100420004042534000229C4603098B422DD3030ACD
:100430008B4212D3FC22890112BA030A8B420CD3DD
:10044000890192118B4208D3890192118B4204D306
:1004500089013AD0921100E08909C3098B4201D386
:10046000CB01C01A524183098B4201D38B01C01AC0
:10047000524143098B4201D34B01C01A5241030937
:100480008B4201D30B01C01A5241C3088B4201D3E6
:10049000CB00C01A524183088B4201D38B00C01A93
:1004A0005241D9D243088B4201D34B00C01A52416A
:1004B000411A00D20146634652415B10104601D3F7
:1004C0004042002B00D54942704763465B1000D381
:1004D000404201B50020FFF713FF02BD0029F8D00C
:1004E00016E7704700000000000000000000000058
:1004F0008446101C62468C46191C634600E0C046C8
:100500001FB501F005F8002801D40021C8421FBD25
:1005100010B500F055FF4042013010BD10B500F09D
:10052000F7FF002801DB002010BD012010BDC046F0
:1005300010B500F0EDFF002801DD002010BD012006
:1005400010BDC04610B500F07BFF002801DC002084
:1005500010BD012010BDC04610B500F071FF00288D
:1005600001DA002010BD012010BDC04600000000CF
:10057000002B11D1002A0FD1002900D1002802D070
:100580000021C943081C07B4024802A14018029088
:1005900003BDC0466DFDFFFF03B4684601B5029878
:1005A00000F006F8019B9E4602B00CBC7047C046A6
:1005B000F0B557464E464546DE46E0B5040083B0EA
:1005C0000D00924699468B422FD82CD04946504672
:1005D00001F096FE29000600200001F091FE331A7A
:1005E0009846203B9B4600D574E053465A469340BC
:1005F0001F005346424693401E00AF4229D826D0E2
:100600005B46A41BBD41002B00DA79E000220023E9
:100610000092019301235A469340019301234246DD
:100620009340009319E08242D0D900220023009227
:1006300001930C9B002B01D01C605D600098019918
:1006400003B03CBC90469946A246AB46F0BDA342DF
:10065000D6D900220023009201934346002BE8D014
:10066000FB0772081A4346467B080EE0AB4201D1F5
:10067000A2420CD8A41A9D41012024196D410021E9
:10068000013E24184D41002E06D0AB42EED9013E6A
:1006900024196D41002EF8D15B460098019900198C
:1006A0006941002B22DB2B005A46D3402A004446E6
:1006B000E2401C005B461500002B2CDB26009E4010
:1006C000330026004746BE403200801A9941009010
:1006D0000191AEE7424620239B1A5246DA4041463A
:1006E00013004A468A4017001F4382E742462023F0
:1006F0009B1A2A0046469A402300F3401343D5E74D
:100700004246202300219B1A0022009101920122DF
:10071000DA40019282E74246202326009B1ADE40FF
:100720002F00B446974066463B003343C9E7C046B6
:10073000F8B54546DE4657464E460C03E0B54E003A
:10074000C90F88460D00610A440F0C43C700190306
:100750005800DB0F9B464B0A510F0B43760D400DA3
:100760001900D200D84500D1AEE0351A002D00DCCA
:10077000F6E000280FD1134300D1DBE06B1E002B05
:1007800000D037E1BA1A9742BF41641A7F42E41B96
:100790000126170024E0C64B9E424DD080231B0447
:1007A0001943382D00DD07E11F2D00DD38E1202041
:1007B000431B9A460B005046834099461300484617
:1007C000EB401843030050468240501E8241E940EE
:1007D0001A43BA1A611A9742A441170064420C1BCB
:1007E000230262D56402650A002D00D1DFE02800F3
:1007F00001F066FD0300083B1F2B00DDD2E0202244
:100800003C00D21A9D40D4409F4025439E4200DDCB
:10081000C4E09E1B731C1F2B00DDF1E0202238007A
:100820002900D21AD840914097402C000143781EED
:100830008741DC4000260F437B0709D00F233B4054
:10084000042B05D03B1DBB42BF417F42E4191F0072
:1008500023022CD5964B01369E4200D19AE04546A4
:10086000944BFF081C406007760564020743240B85
:10087000760D00212403230B0C0D8F4A24051C4305
:100880001440330523435B00ED075B082B4338001E
:1008900019003CBC90469946A246AB46F8BD64465A
:1008A000044300D111E2040067467B07C6D14546E8
:1008B0006007FF080743E4087D4B9E4230D02403C5
:1008C0007605240B760DD4E7331A9A46002B78DD93
:1008D000002831D076488642AED080200004014303
:1008E0005346382B00DCE9E00A43511E8A410021BF
:1008F000D219BA42BF4109197C4217000C192302D0
:10090000D3D56B4B01369E4200D13AE10120694BB1
:100910001C407B0807401F43E007074364088BE740
:1009200023003B4300D1CBE1802212031443240374
:10093000240B9EE72E007FE70800104300D1B4E0AF
:10094000581E002800D0DEE0BA18BA429B41641855
:100950005B42E418170001262302A6D50226D5E73C
:10096000002D6ED1701C4005400D012800DCF9E01F
:10097000B81A844687428041E51A40422D1A28025F
:1009800000D489E0D71BBA4292411C1B5242A51ADF
:10099000D84629E74546002400276AE7454CF61A61
:1009A0002C4049E73D002838854000272EE73800D5
:1009B00001F086FC20301DE70A43511E8A410021C8
:1009C00007E7002B00D0F3E0701C43055B0D012B03
:1009D00000DCADE0364B984200D1D1E0BA18BA4203
:1009E000BF4164187F42E419E707520817436408BF
:1009F000060021E72E48854200D193E01D00D0E695
:100A000029001F3EF140202B00D18DE04022D31A57
:100A10009D402F437D1EAF4100240F43002644E735
:100A20002B000800203BD8400300202D00D17DE0A2
:100A30004020451BA9400A43511E8A4100211A4308
:100A4000C7E6002E50D01A4EB04257D080266B42D7
:100A50009946360434434B46382B00DDD6E01F2B35
:100A600000DD35E12026F51A2600AE40B2463E00F4
:100A7000DE40AC46350056462E436546AF407D1EEF
:100A8000AF41DC403743D71BBA4292410C1B524264
:100A9000A41A0600D846A3E6644667462C4300D055
:100AA000A2E600250026002706E71E00C4E6C04691
:100AB000FF070000FFFF7FFFFFFF0F801F2B63DC9E
:100AC0002020C31A080098409C46834653461000D5
:100AD000D84003005846184363469A40531E9A4133
:100AE00053460243D94003E726003E4306D0EB437A
:100AF0009946002BC7D0944EB042ACD10C001700E1
:100B00000600D84698E6904B9A450BD08246E7E619
:100B1000002800D09EE01800104300D1E9E01C003E
:100B20001700D846884E87E6002572E7002182E745
:100B300023003B43002E00D0ABE0002B00D1E7E0C8
:100B40000B00134300D177E6BA18BA42BF416418CC
:100B50007F42E419230200D4F2E07C4B17001C40D2
:100B6000060069E620003843002ED1D100285BD171
:100B70001C00144300D1A8E01C001700D8465BE617
:100B800006000024002797E650460B002038C3409B
:100B900099465346202B00D195E0402350461B1A1E
:100BA00099400A43511E8A414B4600211A439FE651
:100BB000002E30D126003E4367D0DB439A46002BFF
:100BC0001CD0614EB04260D05346382B00DD96E019
:100BD0001F2B00DD9FE02026F31A26009E409C4636
:100BE000B34653463E00DE4033005E461E43634636
:100BF0009F407B1E9F415346DC403743BF189742BE
:100C0000924164185242A418060078E627437C1EDD
:100C1000A741002437E74C4EB04236D080265B42D5
:100C200036049A463443CFE71800104300D103E658
:100C3000B81A84466745AD41E01A6D42401B050273
:100C400000D42CE6D71BBA4292411C1B5242A41A74
:100C5000D846F1E51800104300D163E7F8086707AC
:100C600007438020E4080003044208D0DD08054261
:100C700005D1D208590711430F002C00D8467B0F2D
:100C8000E4001C43FF00304ED6E50C0017000600C0
:100C9000D2E5002B38D00B00134300D142E7F8080F
:100CA000670707438020E40800030442E7D0CB082D
:100CB0000342E4D1D208490711430F001C00DEE7CC
:100CC00000270024D5E500216BE700250027F3E588
:100CD0004E462500203EF5404B462E00202B2DD0C1
:100CE0004025ED1AAC4027437C1EA7410024374322
:100CF000C9E6802400252403134E0027DCE52743A2
:100D00007C1EA741002479E70C0017000E4E93E5E6
:100D10000C00170090E556462300203EF34099460C
:100D20005346202B0ED0402356469B1B9C40274306
:100D30007C1EA7414B4600241F435FE70024D2E7F7
:100D40001700B2E50024F2E7FF070000FFFF7FFF76
:100D5000F0B557464546DE464E46E0B54C000E031C
:100D600087B0834692461D008046360B640DCF0F38
:100D7000002C4FD06F4B9C4235D08023420F1B0478
:100D8000F600134333439946C30098466A4B002646
:100D90009C460023644403932B031B0B9B466B0070
:100DA000ED0F50465B0D01955ED0624A934253D0E1
:100DB0005A46D1008022400F120402430A43934650
:100DC0005246D1005C4A9446002263443800684091
:100DD00084460290E41A16430F2E00D9B4E0574B14
:100DE000B6009B599F460300334399466CD10023BC
:100DF0009846023308260393CEE7CB464146039A32
:100E00000197022A65D1019B4A4C9C46002300228F
:100E100098466BE00300334399464ED0002E00D134
:100E2000BCE1300001F04CFA03000B3B1C2B00DD51
:100E3000ACE11D22D31A5A460100DA4008398E402F
:100E40001300334399465B468B40984600233C4C45
:100E50000026241A03939FE751465A46114329D18D
:100E6000002293460232B1E7594601431ED05B4649
:100E7000002B00D19EE1584601F022FA03000B3B03
:100E80001C2B00DD8FE102005946083A91408B4649
:100E90001D21CB1A5146D9400B0059460B435146F0
:100EA0009B469140264B00221B1A8FE7002301220C
:100EB0009B468BE75146032288E70023984601337F
:100EC00004260024039367E70323B14603930C260B
:100ED00062E7032A00D15CE2019B012A00D0E4E131
:100EE00013409C4600230024002298460021120350
:100EF000130B0A0D12051A432305124C40462240DB
:100F0000134362465B00D2075B081343190007B026
:100F10003CBC90469946A246AB46F0BD00238022D9
:100F20009C4612039846034CE0E70023014C002244
:100F30009846DBE7FF07000001FCFFFFE091000897
:100F40000DFCFFFFFFFF0F80D94500D939E100D12B
:100F500034E1002346464D469A46013C5B460A0E64
:100F60001B021A430B02170C039313041B0C3900CA
:100F7000280090460193FFF733F90200019B834656
:100F80005A43280039009146FFF7B0F9350C09049F
:100F90000D43A9450DD95B464544013BA84500D901
:100FA0003AE1A94500D837E102235B429C4645441B
:100FB000E3444B46EB1A390018000493FFF710F98D
:100FC000019B05004343390004989946FFF78EF9C9
:100FD000330409041B0C0B43994509D943446A1E89
:100FE000984500D91AE1994500D817E1023D4344DC
:100FF0004A469B1A5A4612042A4303999346100CF8
:101000000A0C914609045A46090C4E460D0012047A
:10101000120C4543059151437243704352190E0C13
:10102000B218954203D980256D02AC466044150C78
:1010300009041204090C28185218834200D2CEE089
:1010400000D1C8E01D1A53469E1AB2459241524241
:10105000AB1A9A46984500D117E139001800FFF7FE
:10106000BFF8019B05004343390050460493FFF746
:101070003DF904980B04310C1943884209D94144C5
:101080006B1E884500D907E1884200D804E1023D83
:101090004144049BCB1A180039000493FFF7A0F8D1
:1010A000019B82464343390004980193FFF71EF9E0
:1010B00001980B043104090C194388420DD9534699
:1010C0004144013B884500D9E8E0884200D8E5E08A
:1010D00002235B429C464144E244019B2D04CE1A0C
:1010E00051462943059D4F462A000B04080C1B0C52
:1010F0005A4345437B4378435B19170CFB189D42C9
:1011000003D980256D02AC4660441D0C12041B04FB
:10111000120C28189B18864200D293E000D18EE072
:1011200001231943A04BE318002B00DC99E04A0788
:1011300000D09EE05A46D20106D55A469B4B1A4033
:1011400080239346DB00E318994A934268DD01232C
:10115000029A984C1A400023944698460022C5E60D
:1011600080224B46120313420AD05B46134206D13B
:101170001A431203120BAC4688468E4CB6E64B4619
:101180001A431203120BBC468A4CAFE603005A46C0
:10119000283B9A4000239146984657E6584601F06E
:1011A0008FF8203040E603005246283B9A40002149
:1011B000934677E601F084F820305FE6884500D258
:1011C000C7E64B46DE075D0843465B081E434346C1
:1011D000DB079A46C2E60025924500D333E7039E1B
:1011E0005946B446E244B245AD416D424544EB1820
:1011F0000139984507D2984200D97FE000D1BCE080
:101200001D1A8B461FE79845FAD1039D5545F2D923
:1012100043468B461D1A16E79B46CAE61500E7E6CD
:101220005A46C90852070A435B0590465C0D5A4668
:101230000123029952021940120B8C4656E6002BEC
:1012400000D16FE746444A1EB04529D911008642B5
:1012500000D065E7039A934200D061E762E701217D
:1012600049420120C21A382A21DD029B03409C46D4
:1012700038E60F220A40042A00D15BE70A00111D5C
:10128000914292415242934454E7474BE318002B5A
:10129000E5DD01225242F2E71D00FAE69A461CE71C
:1012A000B04239D86ED011003AE702933AE71F2ACC
:1012B0003CDC20239B1A0C005846994098404B1E5A
:1012C00099415B46D440D340204308431A0043076A
:1012D00009D00F230340042B05D00100081D8842CC
:1012E0009B415B42D21813023AD50123029A012492
:1012F0001A400023944698460022F7E5022149420D
:101300008C46039DE344AC46E244AA45AD416D42A0
:101310004544ED182D1A96E68A1E03994D008D421C
:10132000894149424144761803958FE71F20404286
:10133000C31A5846D8400300202A28D040205D46D2
:10134000821A954029434A1E9141194307230022DE
:101350000B4009D00F2300220B400800042BBDD105
:10136000010053075202120BC90819430123884692
:101370000299002419408C46B8E55245BED88B46E8
:10138000002560E6039D9D42C6D3110062E700255B
:10139000D8E780225B4612031A43019B1203120B0B
:1013A0009C468846034CA1E5FF030000FFFFFFFEBB
:1013B000FE070000FF070000000000000000000022
:1013C000F0B54F464646D6465C00C0B51F03DB0F5E
:1013D0009A46174B0E034D0084468046360B6D0D22
:1013E000C90F91463F0B640D01209D4208D09C42DD
:1013F00001D0A5420BD01CBC90469946A246F0BD38
:1014000063463343F7D1AC42F5D13A43F3D10120DF
:10141000BE42F0D1C845EED1514507D0002DEAD1EA
:1014200063461E433000461EB041E4E70020E2E779
:10143000FF070000000000000000000000000000A6
:10144000F0B54546DE4657464E46E0B51F033D0B18
:101450002C4F0E034C00AB465D008446360B640DEA
:10146000C90F90466D0DDB0FBC422AD0254FBD42FF
:101470002DD0002C0FD130430700814678427841AF
:10148000C0B2002D17D15F463A4314D14B4600201D
:10149000002B0AD006E0002D02D15846024301D0AD
:1014A000994218D04842012108433CBC90469946D5
:1014B000A246AB46F0BD0028F2D00120013B184304
:1014C000F3E737000743D1D002204042EDE75F4603
:1014D0001743CED0F8E7AC42E4DC03DA481E012122
:1014E0000843E2E75E45DDD806D000205E45DCD249
:1014F0000123481E1843D8E7C445D3D80020C4456B
:10150000F6D3D2E7FF070000000000000000000053
:10151000F0B54E464546DE4657465C00E0B51F0333
:10152000DB0F99462A4B0E034D00C90F8446360B3C
:101530006D0D8B4690463F0B640D9D4220D0244B91
:101540009C4222D0002D12D1304343424341DBB2B2
:10155000002C1FD0002B0CD04B460120013B034335
:1015600018003CBC90469946A246AB46F0BD002C04
:1015700016D0CB4517D05B46594201230B43EFE70A
:10158000310002230143EBD1D9E739000223114393
:10159000E6D1D7E73A43DDD100230028E0D0EAE7DF
:1015A0003A43E6D1E7E7A542E5DC05DBBE42E2D8F7
:1015B00007D00023BE42D3D25946012301390B4341
:1015C000CEE7C445D7D80023C445F5D3C8E7C04605
:1015D000FF07000000000000000000000000000005
:1015E000F0B557464546DE464E46E0B50C039846F4
:1015F0004E00230B87B0070092469B46760DCD0F19
:10160000002E6BD06D4B9E4235D080245B46420F3E
:101610002404DB0014431C43C3009946684BA346D3
:101620009C46002300276644029343461C035A004D
:10163000DB0F5046240B520D984600D176E05F4BED
:101640009A426DD08023410F1B040B435C49E40098
:101650008C461C43C300002062444146B6186940D2
:10166000721C0191944607430F2F00D9B0E0554AF0
:10167000BF00D25997465B460343994600D087E0A6
:1016800000239B46023308270293CEE7424601928D
:10169000022867D0032800D10EE2012800D062E1C1
:1016A000002300240022994601990140CDB2002177
:1016B00012030B0D120B1B051343434A2405134061
:1016C0001C436400ED0764082C434846210007B022
:1016D0003CBC90469946A246AB46F0BD03439946B2
:1016E0004FD05B46002B00D189E1584600F0E8FD61
:1016F00003000B3B1C2B00DD7AE11D22D31A3A00BC
:1017000001005C46DA4008398C4013008F402343C7
:101710009B46B94600232D4E0027361A029384E7D4
:10172000534623432AD10024022096E753462343FD
:1017300020D0002C00D157E1200000F0C1FD0300B3
:101740000B3B1C2B00DD49E11D21CB1A5146020049
:10175000D9405346083A944093400C431B4A121A0E
:1017600000207AE70125019B144C1D400023002234
:1017700099469CE70024002201206EE7534603208F
:101780006BE700239B4601330427002602934CE7B6
:10179000032381460C27029347E78022002300257C
:1017A00012039946054C82E75C464B4602986FE768
:1017B0005C464B46019502986AE7C046FF07000069
:1017C00001FCFFFF20920008FFFF0F800DFCFFFFD0
:1017D0004A464946170C1A0C1B041B0C0804190036
:1017E000000C41431500884619007D437943039559
:1017F00089462900150045434D44029545462D0C68
:10180000AA46029D5544A94506D98A468021490227
:101810008946CA4451460391290C04914146090462
:101820002D04090C88462900250C24044144240C6D
:101830000591210041438846210079438A46684347
:10184000414650448146080C48446F43824503D9C1
:101850008021490289464F44010C89463900494498
:10186000029141460F0404993F0C88460004C019B8
:1018700080444146049159460F0C0904090C8846DE
:1018800059438A4639005143894641464A435146A5
:10189000090C8B467B43D2185A44934203D98023C8
:1018A0005B029B46D94451460904090C8A464146CD
:1018B00061437C43130C12044B445244A1468A46B4
:1018C0003C0041466C434D4351464D440F0C7D193D
:1018D000A94503D98021490288464444049F0399BD
:1018E000B84641448B468345804141428846514633
:1018F00008042F04000C3F18584602991018894616
:10190000904292414F44BA46524299469346C2444D
:10191000D144CB448F42BF41C245894199459B4147
:10192000934592417F4249422D0C52420F435B4204
:1019300013437F19FF185B463C19DB0D059A6402BF
:101940001C43430213435D1EAB415A46C00D034383
:1019500052021343E20156D501205A0803401343B3
:10196000E207134364085A48604400284DDD5A07D3
:1019700009D00F221A40042A05D01A1D9A429B4111
:101980005B42E4181300E20104D58020514AC000F4
:1019900014406044504A904200DDE3E60125DB0834
:1019A00062071A436402019B9146220B4405640DB1
:1019B0001D407CE6802259461203114208D0144291
:1019C00006D122431203120B45469946434C6EE65C
:1019D0005B461A431203120B404C68E60300544660
:1019E000283B9C400023B9E600F06AFC2030A6E6C4
:1019F0000300283B9F400023BB4699468AE600F03F
:101A00005FFC203074E6B446ADE701252A1A382A77
:101A100006DD019B00241D4000230022994646E676
:101A20001F2A21DC20252000AD1A1E00AB40A84053
:101A3000D6405D1EAB4130431843D440430709D024
:101A40000F230340042B05D00300181D98429B412F
:101A50005B42E418230221D50125019B01241D408E
:101A600000230022994622E61F2521006D42281AF4
:101A7000C1400800202A1DD05F35AA1A9440234394
:101A80005C1EA341072503431D400022002D09D001
:101A90000F2200241A401800042AD6D1030065073B
:101AA0006402220BDB082B4301259946019B00248D
:101AB0001D40FCE50024E2E78022012512032243B9
:101AC00001991203120B0D409946044CEFE5C046F4
:101AD000FF030000FFFFFFFEFE070000FF070000FE
:101AE000F0B54646D6464F460C03C0B5CD0F4E0066
:101AF000610A440F0C43C1005800400D84468A46D9
:101B00000F001903500F490A0143C648760DA84635
:101B1000DB0FD200844500D1D8E001204340AB4226
:101B200000D1A6E06046351A002D00DC05E1002852
:101B300010D10B00134300D1D7E06B1E002B00D057
:101B40004BE153469F1ABA458041641A4042241A19
:101B500001261EE0B34B9E4248D080231B0419434C
:101B6000382D00DD19E11F2D00DD4CE120230F0091
:101B70005B1B10009A409F40E840531E9A41E94089
:101B8000074317435346DF1B611ABA45A441644219
:101B90000C1B230200D4C5E06402650A002D00D1AD
:101BA000F6E0280000F08CFB0300083B1F2B00DD53
:101BB000E9E020223C00D21A9D40D4409F402543BA
:101BC0009E4200DDDBE09E1B731C1F2B00DD0AE143
:101BD00020223800D21A290097402C009140D8408A
:101BE0007A1E9741DC40002601430F437B0709D052
:101BF0000F233B40042B05D03B1DBB42BF417F421E
:101C0000E4191F00230225D5864B01369E4200D1E0
:101C1000AFE0854B01251C4043466207FF08640284
:101C200076051743240B760D1D4000212403230B5A
:101C30000C0D7E4A24051C431440330523435B00EE
:101C4000ED075B082B43380019001CBC90469946F1
:101C5000A246F0BD012543466207FF081743E4088A
:101C60001D40704B9E4236D024037605240B760D22
:101C7000DBE76346F31A002B00DC94E060460028A3
:101C800035D068488642B1D080273F043943382B8D
:101C900000DCFDE00A43170000217A1E97415744FB
:101CA00057458041091944420C1923023AD55D4B2E
:101CB00001369E4200D14BE101225B4B1C407B0868
:101CC00017401F43E207174364088FE708001043DB
:101CD00000D024E721E723003B4300D1B9E1802273
:101CE000120314432403240B9FE72E007EE7080011
:101CF000104300D1CAE0581E8446002800D0E7E017
:101D0000524452458041641840422418170001266D
:101D1000230207D50226CFE764462C4300D1B3E166
:101D20002C0067467B0700D062E76307FF081F436C
:101D300001254346E4081D4093E7002D78D1751C2A
:101D40006D056D0D012D00DCF2E05046801A8245D4
:101D5000BF41651A7F42ED1B8446280200D48CE007
:101D60005046171ABA4292410C1B5542651B9846C1
:101D700014E70125434600241D40002755E72A4C5F
:101D8000F61A2C4032E73D0028388540002717E737
:101D9000380000F095FA203006E70A4317000021CA
:101DA0007A1E9741EEE6002B00D0E5E0731C9C46BE
:101DB0005B055B0D012B00DC9FE01A4B9C4500D1BD
:101DC000C5E0524452458041641840422418E70758
:101DD000520817436408664608E71248854200D156
:101DE00085E01D00BCE629001F3EF140202B00D1FC
:101DF0007FE04022D31A9D402F437D1EAF41002437
:101E00000F4300268EE72B000F00203BDF40202DE4
:101E100071D040235D1BA9400A43511E8A41002115
:101E20001743AFE6FF070000FFFF7FFFFFFF0F80B4
:101E3000002E3ED0B34EB44545D0802636046D42C8
:101E40003443382D00DDA8E01F2D00DD1FE12026E2
:101E500027005046761BB740E84007435046B04045
:101E6000461EB041EC403843171ABA4292410C1B4F
:101E70005242A41A664698468BE6644667462C434F
:101E800000D08BE6002500260027EAE61E00ADE61E
:101E90001F2B60DC2027F81A0F00844687401000B3
:101EA000D840074360468240501E8241D9401743C4
:101EB000F5E626005046064305D0ED43002DD3D06D
:101EC000904EB445BDD10C001700664698468DE68D
:101ED0008C4883420BD06346D9E6002D00D096E0B3
:101EE0000800104300D1E2E00C0017009846854E30
:101EF0007CE6002580E700218EE72300504603435F
:101F0000002E00D0A8E0002B00D1DEE00B00134330
:101F100000D16BE652445245804164184042241877
:101F20001700230200D4FDE6774B66461C405DE6B1
:101F3000250050460543002ECFD1002D4FD10C0077
:101F4000144300D1A0E00C00170098464EE6664608
:101F50000024002785E61F000800203FF840070006
:101F6000202B00D18EE04020C31A99400A43511E15
:101F70008A410021174392E6002E14D126005046D4
:101F8000064362D0DB43002B5CD187189742924115
:101F900064185242A418664687E650462043441E01
:101FA000A041002460E7574EB4454ED08026360449
:101FB0005B423443382B00DD7FE01F2B00DD8BE0DC
:101FC000202627005046F61AB740D840074350460F
:101FD000B040461EB0410743DC40BF18D6E70D00B5
:101FE000154300D102E65046801A8245BF41651A6A
:101FF0007F42ED1B8446280200D48DE65046171A16
:10200000BA4292410C1B5242A41A9846EEE50D00CA
:10201000154300D16BE750466707C008074380208F
:10202000E4080003044207D0CD08054204D12C0087
:102030009846D70849070F437B0FE4001C43FF0075
:10204000304ED3E52F4EB445B4D10C001700664690
:10205000CCE500270024E8E5002B39D00B00134322
:1020600000D144E7C008670707438020E408000365
:102070000442E1D0CB080342DED1D70849070F4321
:102080001C00D9E7002171E700250027E9E52E00B3
:102090002700203EF740202D2FD04026751BAC4056
:1020A00050462043441EA04100243843DCE68024EF
:1020B00000252403134E0027D3E550462043070094
:1020C000781E87410024BF1860E70C0017008DE5DB
:1020D0000C0017000B4E89E51E002700203EF7403C
:1020E000202B0CD04026F31A9C4050462043441E1F
:1020F000A04107430024BF1848E70024D0E700248C
:10210000F3E7C046FF070000FFFF7FFF000000006D
:1021100070B50E4E0D031C0349005B002D0B490DDD
:10212000240B5B0DB14204D0084900208B4208D03B
:1021300070BD05430120002DFAD1044900208B42D7
:10214000F6D114432000441EA041F1E7FF07000030
:1021500030B5134D0A034B00120B5B0DC90F002461
:10216000AB4210DD0F4CA3420FDC80240E4D640304
:102170002243ED1A1F2D0BDD0C48C31ADA405442DE
:10218000002900D11400200030BD094BCC18FAE71B
:10219000084CE840A44663449A400243EFE7C04637
:1021A000FE0300001D0400003304000013040000BF
:1021B000FFFFFF7FEDFBFFFF0000000000000000BD
:1021C00070B5002830D0C317C4185C40C50F20007C
:1021D00000F076F8174B184A1B1AD21A1F2A18DD7E
:1021E000164AD21A9440002224035B05240B5B0D8F
:1021F0000021100024030A0D240B12052243104C69
:102200001B05224013435B00ED075B082B431900BD
:1022100070BD210091400A000B21081AC4405B05E3
:102220002403240B5B0DE3E7002500230024002298
:10223000DEE7C0461E040000330400001304000063
:10224000FFFF0F8000000000000000000000000001
:1022500010B5041E28D000F033F8154B154A1B1A90
:10226000D21A1F2A15DD144AD21A944000222403E0
:102270005B05240B5B0D0021100024030A0D240BC9
:10228000120522430D4C1B05224013435B005908E5
:1022900010BD210091400A000B21081AC4405B05C3
:1022A0002403240B5B0DE6E7002300240022E2E771
:1022B0001E0400003304000013040000FFFF0F8021
:1022C0001C2101231B04984201D3000C10391B0A66
:1022D000984201D3000A08391B09984201D300092A
:1022E000043902A2105C40187047C0460403020281
:1022F00001010101000000000000000000000000DA
:1023000010B5002903D1FFF7DBFF203002E0081CE5
:10231000FFF7D6FF10BDC04600000000000000001F
:10232000C0467047000000000000000000000000F0
:10233000C0467047000000000000000000000000E0
:10234000FEE7C046000000000000000000000000A2
:1023500084B0174B0393039B1B680293039B5B683A
:10236000019309E0029B1A68019B1A60019B0433E8
:102370000193029B04330293039B9A68019B9A4248
:10238000F0D805E0019B00221A60019B0433019301
:10239000039BDA68019B9A42F4D8039B10330393A2
:1023A000039A044B9A42D6D3C04604B07047C04645
:1023B00060920008E09200080000000000000000A9
:1023C000FEE7C04600000000000000000000000022
:1023D00030B583B0020000916B4607331A706B462C
:1023E00007331B787F2B36D9324C6B4607331B786B
:1023F0001A000F231340083B99082E4A6B460733F7
:102400001B7818000F230340083B9B0806339B00F2
:10241000D31804331B686A4607321278100003226F
:102420000240D200FF2090400200D2431A40009B9D
:102430009B01FF2018406B4607331B781D000323C8
:102440002B40DB00984003001A438B1D9B00E318D0
:1024500004331A602BE0184C6B4607331B785BB2D1
:102460009B0815496A460732127852B29208C03268
:10247000920052586946073109780800032101404B
:10248000C900FF2088400100C9431140009A920111
:10249000FF2010406A4607321278150003222A40B6
:1024A000D200904002000A43C0339B001A51C0463C
:1024B00003B030BD00ED00E000E100E000000000EE
:1024C00010B502235B4200211800FFF781FFC046D0
:1024D00010BDC04600000000000000000000000029
:1024E00072B6C0467047C046000000000000000001
:1024F00062B6C0467047C046000000000000000001
:1025000010B5FFF7EDFFC04610BDC046000000004B
:1025100010B5FFF7EDFFC04610BDC046000000003B
:1025200072B6C0467047C0460000000000000000C0
:1025300062B6C0467047C0460000000000000000C0
:10254000C0467047000000000000000000000000CE
:10255000024B5B6A9BB218007047C0460004004003
:1025600010B501F055FEC04610BDC0460000000089
:1025700000B583B002006B4606331A806B46063303
:102580001B88180001F04CFEC04603B000BDC046D9
:1025900010B5FFF7DDFF0300180010BD00000000BC
:1025A00010B500F06DF9FFF7C3FFC04610BDC0467F
:1025B00010B5FFF7A5FF00F0ABF9C04610BDC0464F
:1025C00010B500F0BDF9FFF7A3FFC04610BDC0462F
:1025D00010B5FFF7DDFF0300180010BD000000007C
:1025E00010B584B000F004FA3F4BDB6903930A2472
:1025F0006C44FFF7EDFF030023802EE03A4BDA8CAA
:10260000039B1B89D3189AB2374BDA84039B1B6850
:10261000364A5A60039B1A68334BDA61039BDB68C6
:102620000193039B0022DA602F4BDA692F4B9A4209
:1026300001D1FFF795FFFFF7C3FF039B1A69019BC9
:1026400010009847FFF7B4FF274BDB6903930A2478
:102650006C44FFF7BDFF03002380039B1A89224BC4
:10266000DB8C0A2169440988CB1A9BB29A42C5D9EE
:102670001D4BDA691D4B9A4233D01B4BDA8C039BFE
:102680001B89D31899B202AB0A226A4412888A1AAB
:102690001A8002AB1B88012B02D802AB02221A80DF
:1026A0000A226A4402AB12881B88D3189BB2180016
:1026B000FFF75EFFFFF78CFF03001A000A4BDB8C6D
:1026C000D21A0A236B44198802AB1B88CB1806491F
:1026D000C98C5B1A9A4205DD054B180000F080F8A2
:1026E00000E0C04604B010BD201600203C160020BB
:1026F000E092000800000000000000000000000060
:1027000082B00190034B9B69019A9A61C04602B066
:102710007047C046201600200000000000000000A6
:1027200082B001900091019B009A9A61C04602B06C
:102730007047C046000000000000000000000000DC
:1027400000B583B00190FFF7FBFEFCE7000000003E
:1027500000B585B0FFF7B4FE00F0F2FB00F0F8F929
:1027600001F0F6FB01F04CFC00F072F9154B402132
:10277000180000F0BDFE0200134B9A61124B9B69DA
:10278000202201219954104B9B69104ADA61FFF70E
:1027900007FF0F4B1800FFF7B3FF0E4A0E48002348
:1027A000009313000122E02100F042FF0300039395
:1027B0000A4A039B11001800FFF7B2FFC04605B09C
:1027C00000BDC0465C1A0020201600200004002036
:1027D000B093000841270008A81A00205091000873
:1027E00000B583B00190FFF79BFE024B019A9A62FD
:1027F000FEE7C04620160020000000000000000098
:1028000010B500F0F5F8FFF7EBFEC04610BDC0466E
:1028100072B6C0467047C0460000000000000000CD
:1028200062B6C0467047C0460000000000000000CD
:1028300010B5FFF7EDFFC04610BDC0460000000018
:1028400010B5FFF7EDFFC04610BDC0460000000008
:10285000024B5B6A9BB218007047C0460004004000
:1028600010B5FFF7F5FF0300180010BD00000000D1
:1028700010B5FFF7F5FF0300180010BD00000000C1
:1028800010B5074BDB6A002B03D1054B1B6B002BEC
:1028900003D0044B1800FFF7A3FFC04610BDC0468D
:1028A00020160020709100080000000000000000C9
:1028B00010B5084BDB6A002B03D1064B1B6B002BBA
:1028C00003D0054B1800FFF78BFF024B01221A6360
:1028D000C04610BD201600207891000800000000BE
:1028E00010B5084BDB6A002B03D1064B1B6B002B8A
:1028F00003DC054B1800FFF773FF024B00221A633D
:10290000C04610BD20160020809100080000000085
:1029100010B5084BDB6A002B03DD064B1B6B002B4D
:1029200003D0054B1800FFF75BFF024B01221A632F
:10293000C04610BD2016002088910008000000004D
:1029400010B5084BDB6A002B03DD064B1B6B002B1D
:1029500003DC054B1800FFF743FF024B00221A630C
:10296000C04610BD20160020909100080000000015
:1029700010B5FFF75DFF0A4BDB6A002B03DB084B4A
:102980001B6B002B03D0074B1800FFF729FF044BEC
:10299000DB6A5A1C024BDA62FFF752FFC04610BDD9
:1029A00020160020989100080000000000000000A0
:1029B00010B5FFF73DFF0A4BDB6A002B03DD084B28
:1029C0001B6B002B03D0074B1800FFF709FF044BCC
:1029D000DB6A5A1E024BDA62FFF732FFC04610BDB7
:1029E00020160020A0910008000000000000000058
:1029F00010B5074BDB6A002B03DB054B1B6B002B71
:102A000003DC044B1800FFF7EBFEC04610BDC046C8
:102A100020160020A891000800000000000000001F
:102A200010B5074BDB6A002B03D1054B1B6B002B4A
:102A300003DC044B1800FFF7D3FEC04610BDC046B0
:102A400020160020B09100080000000000000000E7
:102A5000034B40225A63024B024A9A63C0467047B6
:102A6000201600205C16002000000000000000007E
:102A700010B582B00190134B9C6BFFF7F9FE030079
:102A80002380104B9B6B0F4A92695A600D4B9B6BD6
:102A9000019A526A9A600B4B9B6B019A2021525CFF
:102AA0001A73084B9B6B10331A00064B9A63054B45
:102AB0009A6B054B9A4202D3024B044A9A63C04672
:102AC00002B010BD201600205C1A00205C16002009
:102AD000024B5B6A9BB218007047C046000400407E
:102AE00000B583B002006B4606331A806B4606338E
:102AF0001B88180001F06CFBC04603B000BDC04647
:102B000010B501F085FBC04610BDC04600000000B6
:102B100000B583B002006B4606331A806B4606335D
:102B20001B88180001F07CFBC04603B000BDC04606
:102B300010B5FFF7CDFF0300180010BD0000000026
:102B400010B5FFF7F5FF0300180010BD00000000EE
:102B5000074B084ADA61064B064A1A62044B012207
:102B600052429A84024B0022DA84C0467047C04623
:102B7000201600203C16002000000000000000008D
:102B800010B586B00390019200930A236B440A1C8F
:102B90001A80FFF72DFF039B002B07D0019B002B12
:102BA00004D00A236B441B88002B03D1554B18001B
:102BB000FFF716FE039B009A1A61039B019ADA60E5
:102BC00004ACFFF7BDFF030023800A236B441B887E
:102BD000012B03D80A236B4402221A804A4BDA697C
:102BE0004A4B9A421FD1484B04AA1288DA84464BBA
:102BF000039ADA61444B039A1A62039B434A1A60B0
:102C0000039B424A5A60039B0A226A4412881A8133
:102C10003D4BDA8C0A236B441B88D3189BB21800F7
:102C2000FFF75EFF6CE0384BDB690593364BDB8CBE
:102C300004AA1288D31A99B212236B440A226A4456
:102C400012888A181A8012236B441A8804AB1B88D6
:102C50002D49C98C5B1A9A420CDA059B1A891223FA
:102C60006B441221694409888A1A1A80059B1B68E3
:102C700005931DE0059B1B8912226A4412889A4223
:102C800016D2214BDA8C12236B441B88D3189BB2CB
:102C90001800FFF73DFF0BE0059B1A8912236B44D8
:102CA0001221694409888A1A1A80059B1B680593BA
:102CB000059B1B8912226A4412889A42ECD8039B16
:102CC000059A1A60039B1B685A68039B5A60039B12
:102CD0005B68039A1A60059B039A5A60039B122251
:102CE0006A4412881A81059B1A8912236B441B8837
:102CF000D31A9AB2059B1A81034B012252429A843D
:102D000006B010BDF0920008201600203C160020EE
:102D100000B585B00190FFF76BFE019B002B03D13E
:102D2000404B1800FFF75CFD019BDB68002B03D1D3
:102D30003C4B1800FFF754FD3B4BDA69019B9A426C
:102D40001CD0019B5B68019A12681A60019B1B688A
:102D5000019A52685A60019B0022DA60019B1A684E
:102D6000324B9A4258D0019B1A68019B1B68198903
:102D7000019B1B89CB189BB213814DE0019B1A6804
:102D8000294BDA61284BDB69284A5A60019B0022F3
:102D9000DA60254BDA69254B9A4202D1FFF7B0FE83
:102DA0003DE0214BDA69204BDB691989019B1B89C6
:102DB000CB189BB21381FFF7C3FE030019001A4B17
:102DC000DA8C03AB8A1A1A80174BDB691B8903AABA
:102DD00012889A4222D2144BDB6919890E236B4464
:102DE00003AA12888A1A1A800E236B441B88012BAF
:102DF00003D80E236B4402221A800B4BDA8C03ABF0
:102E00001B88D3189AB20E236B441B88D3189BB22D
:102E10001800FFF77DFE02E0C04600E0C04605B0A6
:102E200000BDC04600930008201600203C1600207C
:102E300072B6C0467047C0460000000000000000A7
:102E400062B6C0467047C0460000000000000000A7
:102E500010B5FFF7EDFFC04610BDC04600000000F2
:102E600010B5FFF7EDFFC04610BDC04600000000E2
:102E700082B00190019B019A1A60019B019A5A60ED
:102E8000C04602B07047C0460000000000000000CD
:102E900084B00190019B1B680393039B1A68019BFC
:102EA0001A60019B1B68019A5A60039B180004B0CA
:102EB0007047C04600000000000000000000000055
:102EC00082B00190019B5B68019A12681A60019BB5
:102ED0001B68019A52685A60019B180002B0704743
:102EE00010B5FFF7B5FFFFF713FDC04610BDC04694
:102EF00010B5FFF725FDFFF7B3FFC04610BDC04674
:102F000000B583B00190FFF773FD019BDB685A1E8B
:102F10009341DBB2180003B000BDC04600000000C2
:102F200000B583B00190FFF763FD019B9B685A1CBD
:102F3000019B9A60C04603B000BDC046000000007F
:102F400010B5074B1800FFF793FF054B00229A605E
:102F5000034B034A1A61024B014A5A61C04610BD35
:102F6000201600200000000000000000000000000B
:102F700000B585B00190FFF73BFD019B002B03D10D
:102F8000194B1800FFF72CFC019B20229B5C002BA7
:102F900004D0019B20229B5C0F2B03D1124B180005
:102FA000FFF71EFC019B2022002199540F4B039335
:102FB000039B1B680393039B9A68019B9B689A423F
:102FC000F6D2019B039A1A60039B5A68019B5A60D0
:102FD000019B5B68019A1A60039B019A5A60019BEE
:102FE000180005B000BDC046309300082016002030
:102FF00010B584B002006B4607331A70FFF710FD5E
:10300000194B9B690393039B6A4607322021127870
:103010005A54154B1800FFF73BFF0200124B9A6100
:10302000114B9B69202201219954039B1800FFF743
:103030001FFDEFF309831C0023000293029B243B36
:103040001A00039BDB699A4203D2084B1800FFF772
:10305000C7FB054B9B69039A11001800FDF798F810
:10306000C04604B010BDC04620160020C091000824
:1030700000B585B00190019B0393FFF731FF039BDF
:1030800020229B5C072B16D89A00114BD3181B6883
:103090009F46FFF72DFF19E0039B5B6A00221A6031
:1030A0000AE0039B5B6A1800FFF73AFF039B1800D6
:1030B000FFF706FF00E0C046039B012252425A621E
:1030C000039B1800FFF754FFFFF712FF05B000BD88
:1030D0001093000800000000000000000000000045
:1030E00010B588B002006B4607331A7001AB0A1C9A
:1030F0001A80FFF795FC01AB1B88144A934219D044
:10310000134B9C69134A01AB198803A82300FFF7EE
:1031100037FD6B4607331B781800FFF769FF03ABD9
:103120001800FFF7EDFE031E0AD003AB1800FFF7EF
:10313000EFFD05E06B4607331B781800FFF758FFDB
:10314000034B9B695B6A180008B010BDFFFF0000CD
:103150002016002071300008000000000000000070
:1031600010B584B001900091FFF75AFC254B1A6806
:10317000244B9A420BD0234B9B699A68214B1B68C6
:103180009B689A4203D2204B1800FFF729FB019B52
:10319000009A5A62019B9A681A4B9B699B689A42F3
:1031A00004D8019B1800FFF7E3FE27E0154B9B694D
:1031B0001800FFF7DDFE03000393124B019A9A619A
:1031C000019B202201219954039B1800FFF750FC1A
:1031D000EFF309831C0023000293029B243B1A0097
:1031E000039BDB699A4203D2084B1800FFF7F8FAF9
:1031F000039A019B11001800FCF7CAFFC04604B0F7
:1032000010BDC0462016002040930008C091000861
:1032100082B0084B1B689B680193064B9B699B68B7
:103220000093019B009A9A429B415B42DBB21800DB
:1032300002B07047201600200000000000000000CF
:1032400010B584B0244B9B690293234B1800FFF701
:103250001FFE0200204B9A611F4B9B692022012117
:103260009954029B2022002199541B4B0393039BEA
:103270001B680393039B9A68029B9B689A42F6D84B
:10328000029B039A1A60039B5A68029B5A60029B36
:103290005B68029A1A60039B029A5A60029B1800AC
:1032A000FFF7E6FBEFF309831C0023000193019B6A
:1032B000243B1A00029BDB699A4203D2074B180099
:1032C000FFF78EFA044B9B69029A11001800FCF775
:1032D0005FFFC04604B010BD20160020C09100085A
:1032E00010B5FFF7ADFFC04610BDC046000000009E
:1032F00072B6C0467047C0460000000000000000E3
:1033000062B6C0467047C0460000000000000000E2
:1033100082B00190019B019A1A60C04602B07047CA
:1033200082B00190019B1A68019BD31A5A1E9341E7
:10333000DBB2180002B0704700000000000000007F
:1033400082B00190019B019A1A60019B019A5A6018
:10335000C04602B07047C0460000000000000000F8
:1033600082B00190019B1A68019BD31A5A1E9341A7
:10337000DBB2180002B0704700000000000000003F
:1033800084B00190019B1B680393039B1A68019B07
:103390001A60039B180004B07047C046000000008C
:1033A00082B001900091019B009A1A60009B5A68BC
:1033B000019B5A60019B5B68019A1A60009B019A0D
:1033C0005A60C04602B070470000000000000000D4
:1033D00084B00190019B1B680393039B1A68019BB7
:1033E0001A60019B1B68019A5A60039B180004B085
:1033F0007047C04600000000000000000000000010
:1034000010B5FFF775FFFFF753FAC04610BDC04671
:1034100010B5FFF765FA0A4B1A68094B9A420BD0B0
:10342000074B9B699A68064B1B689B689A4203D2BC
:10343000044B1800FFF7D4F9FFF762FFC04610BD38
:10344000201600206093000800000000000000002B
:1034500000B583B002006B4606331A806B46063314
:103460001B88002B03D1074B1800FFF7B9F96B46F7
:1034700006331B8819000820FFF732FEC04603B050
:1034800000BDC0467093000800000000000000006E
:1034900000B585B001900091019B1800FFF760FF17
:1034A00003001A0001235340DBB2002B03D00E4B64
:1034B0001800FFF795F9019B1800FFF789FF03003B
:1034C0000393039B20229B5C042B03D0064B180024
:1034D000FFF786F9039B009A5A62039B1800FFF7D7
:1034E00047FDC04605B000BD9093000800000000F5
:1034F00000B583B001900091019B009A9A60019BF6
:10350000202202219954019B212200219954019BE0
:10351000009A1A64019B0022DA63019B00229A63DD
:10352000019B222201219954019B00229A61019B57
:103530000F4A1A610E4B5A69019B5A61019B5B69E4
:10354000019A1A610A4B019A5A61019B28331800AB
:10355000FFF7DEFE019B2C331800FFF7F1FE019B05
:1035600048331A00019BDA61019B180003B000BDCB
:1035700020160020000000000000000000000000F5
:1035800084B0039002916B4607331A7006E0039BE8
:103590005A1C03926A46073212781A70039A029BE9
:1035A0009A42F4D3C04604B07047C0460000000001
:1035B00000B587B00390029101920093039B05939D
:1035C000FFF716FA039B002B08D0029BCF2B05D9DF
:1035D000019B7F2B02D8009B002B03D10F4B1800BF
:1035E000FFF7FEF8029B243B039AD218059BDA6092
:1035F000059BDB68009A1A61059BDB68089A5A6193
:10360000059BDB68064A1A62019A059B11001800A7
:10361000FFF76EFF0300180007B000BD50930008CD
:10362000B1010008000000000000000000000000E0
:1036300010B588B00590049103920293059B48331E
:103640001900059BFF221800FFF79AFF059B4833DE
:103650001800059A049BD31855221900FFF790FF14
:10366000FFF7CEFE029C039A049905980A9B0093EB
:103670002300FFF79DFF03000793079B002118001D
:10368000FFF76EFDFFF7C4FE079B180008B010BDE2
:1036900000B583B002006B4606331A80FFF7B0FE18
:1036A0006B4606331B881800FFF7D2FEFFF7B0FE0B
:1036B000C04603B000BDC04600000000000000008E
:1036C00000B583B00190FFF79BFE019B180000F04E
:1036D00007F8C04603B000BD000000000000000075
:1036E00000B585B00190194B9B690393039B019A28
:1036F0005A6208E0039B28331800FFF741FE0300DD
:103700001800FFF735FC039B28331800FFF708FE6D
:10371000031EEFD1039B21229B5C1A00032313405D
:1037200009D1039B5B69039A12691A61039B1B69A8
:10373000039A52695A610F20FFF75AFC044B180094
:10374000FFF74EF8C04605B000BDC0462016002069
:10375000809300080000000000000000000000004E
:1037600000B583B001900A006B4602331A806B46A5
:1037700002331B88002B02D101235B420EE0094B70
:103780009B69019A11001800FFF70AFE6B4602338D
:103790001B8819000420FFF7A3FC0300180003B0E6
:1037A00000BDC04620160020000000000000000000
:1037B00000B583B001900091019B1800FFF7D0FD88
:1037C000031E05D0009A019B11001800FFF760FE50
:1037D000C04603B000BDC04600000000000000006D
:1037E00082B00190019B019A1A60019B019A5A6074
:1037F000C04602B07047C046000000000000000054
:1038000000B583B00190019B002B03D1064B18003B
:10381000FEF7E6FF019B1800FFF7E2FF019B002285
:103820009A60C04603B000BDD093000800000000BD
:1038300000B585B001900091FFF7DAF8019B002BED
:1038400003D1144B1800FEF7CBFF019B1B680393B9
:1038500019E0039BDA68009B1A43039BDA60009B24
:10386000002B05D0039BDA68039B1B69134007D02C
:10387000039B5A68039B9B681900100000F010F826
:10388000039B1B680393039A019B9A42E1D1C046B4
:1038900005B000BDE093000800000000000000003B
:1038A00000B583B001900091FFF7A2F8019B002BB7
:1038B00003D1164B1800FEF793FF019B9A6B009BF8
:1038C0001A43019B9A63019B20229B5C0A2B05D122
:1038D000019B9A6B019B5B6A13400DD1019B2022D7
:1038E0009B5C0B2B0FD1019B9A6B019B5B6A1A406F
:1038F000019B5B6A9A4206D1019B00225A62019B9E
:103900001800FFF735FBC04603B000BD0094000867
:1039100072B6C0467047C0460000000000000000BC
:1039200062B6C0467047C0460000000000000000BC
:1039300082B00190019B019A1A60019B019A5A6022
:10394000C04602B07047C046000000000000000002
:1039500010B5FFF7DDFFFEF7ABFFC04610BDC04658
:1039600010B5FEF7BDFF0A4B1A68094B9A420BD0FF
:10397000074B9B699A68064B1B689B689A4203D267
:10398000044B1800FEF72CFFFFF7CAFFC04610BD1E
:103990002016002010940008000000000000000025
:1039A00000B583B00190019B1800FFF7C1FFC0462E
:1039B00003B000BD00000000000000000000000097
:1039C00000B583B00190FFF713F8019B9B685A4242
:1039D0005341DBB2180003B000BDC0460000000038
:1039E00000B583B00190FFF703F8019B5A69019B72
:1039F0009B699A4205D1019B9B68002B01D0012352
:103A000000E000231A1C01231340DBB2180003B0AE
:103A100000BDC046000000000000000000000000E3
:103A200000B583B00190FEF7E3FF019B5A69019B4B
:103A30009B699A4205D1019B9B68002B01D0012311
:103A400000E000231A1C01231340DBB2180003B06E
:103A500000BDC046000000000000000000000000A3
:103A600000B583B00190FEF7C3FF019B9B685A42EB
:103A70005341DBB2180003B000BDC0460000000097
:103A800000B585B00390029101920093039B18004A
:103A9000FFF786FF039B00229A60039B029ADA607D
:103AA000039B029A9A61039B029A5A61029A019BB4
:103AB000D218039B1A61039B009ADA61039B069A52
:103AC0001A62C04605B000BD000000000000000002
:103AD00000B583B001900A006B4603331A70FEF7FD
:103AE00087FF019B1800FFF77BFF031E02D0042312
:103AF0005B421DE0019B9B685A1C019B9A60019BE5
:103B00005B69591C019A51616A46033212781A7036
:103B1000019B5A69019B1B699A4203D3019BDA6896
:103B2000019B5A61019B00211800FFF741FE002311
:103B3000180003B000BDC0460000000000000000F7
:103B400000B585B001900A006B4602331A80FFF77A
:103B5000FFFE019BDB69002B16D0019BDB69019AFC
:103B60001000984710E0019A6B4602331B88190039
:103B70001000FFF7F5FD03000393039B002B03DA0E
:103B8000FFF7EEFE039B22E0019B1800FFF718FFF2
:103B9000031EE8D1019B9B685A1E019B9A60019B02
:103BA0009B69591C019A91610B226A441B7813701E
:103BB000019B9A69019B1B699A4203D3019BDA68B6
:103BC000019B9A61FFF7CCFE0B236B441B78180016
:103BD00005B000BD00000000000000000000000073
:103BE00000B587B00390029101921A006B46023330
:103BF0001A80039BDB69049300230593019B002B30
:103C000003D1274B1800FEF7EBFDFFF7A1FE049B45
:103C1000002B12D0039A049B100098470DE0039AE2
:103C20006B4602331B8819001000FFF799FD031E35
:103C300003D0FFF795FE059B2EE0039B1800FFF7CE
:103C4000BFFE031EEBD1039B9B685A1E039B9A6029
:103C5000029B5A1C0292039A9269501C0399886134
:103C600012781A70039B9A69039B1B699A4203D3CB
:103C7000039BDA68039B9A61FFF772FE059B013391
:103C80000593019B013B0193019B002B01D1059BF7
:103C900002E0FFF75DFEBAE7180007B000BDC046BE
:103CA0002094000800000000000000000000000058
:103CB00000B585B00390029101920093039B180018
:103CC000FFF76EFE039B019A9A60039B029ADA60EB
:103CD000039B029A9A61039B029A5A61029A019B82
:103CE000D218039B1A61039B009ADA61039B069A20
:103CF0001A62C04605B000BD0000000000000000D0
:103D000000B585B00190080011006B460333021C1A
:103D10001A706B460A1C1A80FFF71AFE0FE0019A10
:103D20006B461B8819001000FFF71AFD0300039370
:103D3000039B002B03DAFFF713FE039B29E0019B93
:103D40001800FFF78DFE031EE9D1019B9B685A1EE8
:103D5000019B9A60019B5B69591C019A51616A46FB
:103D6000033212781A70019B5A69019B1B699A42AF
:103D700003D3019BDA68019B5A61019BDB69002B2D
:103D800004D0019BDB69019A10009847FFF7E8FD1A
:103D90000023180005B000BD000000000000000076
:103DA00000B585B00190FEF723FE019B1800FFF7D8
:103DB00037FE031E02D003235B421FE0019B9B687A
:103DC0005A1C019B9A60019B9B69591C019A916145
:103DD0000F226A441B781370019B9A69019B1B692F
:103DE0009A4203D3019BDA68019B9A61019B0021EF
:103DF0001800FFF7DDFC0F236B441B78180005B09B
:103E000000BDC046000000000000000000000000EF
:103E100000B587B00390029101921A006B460233FD
:103E20001A80039BDB69049300230593019B002BFD
:103E300003D1274B1800FEF7D3FCFFF789FD0DE0F7
:103E4000039A6B4602331B8819001000FFF788FCA9
:103E5000031E03D0FFF784FD059B35E0039B18008C
:103E6000FFF7FEFD031EEBD1039B9B685A1E039BCD
:103E70009A60039B5B69591C039A5161029A511C19
:103E8000029112781A70039B5A69039B1B699A422C
:103E900003D3039BDA68039B5A61049B002B03D076
:103EA000039A049B10009847FFF75AFD059B0133C6
:103EB0000593019B013B0193019B002B01D1059BC5
:103EC00002E0FFF745FDC9E7180007B000BDC04696
:103ED0003094000800000000000000000000000016
:103EE00072B6C0467047C0460000000000000000E7
:103EF00062B6C0467047C0460000000000000000E7
:103F000010B5FFF7EDFFFEF7D3FCC04610BDC0466D
:103F100010B5FEF7E5FC0A4B1A68094B9A420BD024
:103F2000074B9B699A68064B1B689B689A4203D2B1
:103F3000044B1800FEF754FCFFF7DAFFC04610BD33
:103F4000201600205094000800000000000000002F
:103F5000074B0733072293431A00064B1A60064BA0
:103F6000072293431A00054B1A60C0467047C046AB
:103F7000681E0020C015002000200020C41500206D
:103F800000B585B00190FFF7BBFF019B180000F062
:103F90000FF803000393FFF7BBFF039B180005B066
:103FA00000BDC0460000000000000000000000004E
:103FB00000B585B00190FEF71BFD019B073307227A
:103FC000934301930C4B1B681A000C4B1B68D31ACC
:103FD0001A00019B9A4201D2002309E0074B1B689B
:103FE0000393064B1A68019BD218044B1A60039B7B
:103FF000180005B000BDC046C4150020C015002043
:1040000010B5074B074A1A60054B00229A60044B13
:104010000022DA60044B1800FFF7F2FBC04610BD27
:10402000C8150020813F0008D815002000000000BE
:1040300072B6C0467047C046000000000000000095
:1040400062B6C0467047C046000000000000000095
:1040500010B5FFF7EDFFC04610BDC04600000000E0
:1040600010B5FFF7EDFFC04610BDC04600000000D0
:1040700090B583B000AFEFF309831C0023007B6091
:104080007B6820337B607B683B603B6883F30988F7
:10409000FFF7E6FFC046BD4603B090BD000000003C
:1040A00090B585B000AF78607B680F331DD0FFF707
:1040B000CFFFEFF309831C002300FB60FB68203B6C
:1040C000FB60FB68BB60BB6883F30988FB688022E8
:1040D0005204DA61FFF79CF8031E03D0FB68054A1F
:1040E0009A6102E0FB68044A9A61C046BD4605B089
:1040F00090BDC046C1010008CC01000800000000CE
:10410000C0467047000000000000000000000000F2
:1041100010B5FFF7F5FF00F0FBFA064B180000F0B2
:1041200067FC00F0DDF900F073FF00F049F8C046CD
:1041300010BDC046E0940008000000000000000030
:1041400082B002006B4606331A80074B6A4606327D
:1041500012885A63044B00221A61034B0222DA6070
:10416000C04602B07047C046000400400000000096
:10417000024B0022DA60C0467047C046000400408F
:1041800082B002006B4606331A80044B6A46063240
:1041900012885A63C04602B07047C046000400400F
:1041A000044BDB68022213405A1E9341DBB2180015
:1041B0007047C046000400400000000000000000FE
:1041C00010B500F0B5FBC04610BDC04600000000B1
:1041D00000B583B002006B4606331A80FFF7E0FF9C
:1041E000031E03D0064B1800FEF7FAFA6B4606339F
:1041F0001B881800FFF7A4FFC04603B000BDC046EF
:1042000060940008000000000000000000000000B2
:1042100010B5FFF7ADFFC04610BDC046000000005E
:1042200000B583B002006B4606331A80FFF7B8FF73
:1042300003001A0001235340DBB2002B03D0064BCE
:104240001800FEF7CDFA6B4606331B881800FFF7FF
:1042500097FFC04603B000BD709400080000000046
:1042600072B6C0467047C046000000000000000063
:1042700062B6C0467047C046000000000000000063
:1042800010B5FFF7EDFFFEF713FBC04610BDC046AB
:1042900010B5FEF725FB0A4B1A68094B9A420BD062
:1042A000074B9B699A68064B1B689B689A4203D22E
:1042B000044B1800FEF794FAFFF7DAFFC04610BD72
:1042C00020160020B094000800000000000000004C
:1042D00082B00190019B019A1A60C04602B07047FB
:1042E00000B583B00190FEF783FB019B9B685A42A7
:1042F0005341DBB2180003B000BDC046000000000F
:1043000010B5FFF7BDFFC04610BDC046000000005D
:1043100010B5FFF7BDFFC04610BDC046000000004D
:1043200000B583B00190019B1800FFF7D1FFC04694
:1043300003B000BD0000000000000000000000000D
:1043400000B583B001900091009A019B1100180004
:10435000FFF76EFAC04603B000BDC0460000000083
:1043600000B585B0039002910192039B3033180091
:10437000044B019A0299FFF74BFD0300180005B0AA
:1043800000BDC046FFFF000000000000000000006C
:1043900000B585B0039002910192039B0C33180085
:1043A000044B019A0299FFF71BFC0300180005B0AB
:1043B00000BDC046FFFF000000000000000000003C
:1043C00000B583B001900A006B4603331A70019B5D
:1043D00030331800054A6B4603331B781900FFF78A
:1043E0008FFC0300180003B000BDC046FFFF0000B3
:1043F00000B583B00190019B0C33044A11001800F2
:10440000FFF79EFB0300180003B000BDFFFF000094
:1044100000B583B00190080011006B460333021C05
:104420001A706B460A1C1A80019B303318006B46C9
:104430001A886B4603331B781900FFF761FC0300F1
:10444000180003B000BDC0460000000000000000DE
:1044500000B583B001900A006B4602331A80019BBD
:104460000C331A006B4602331B8819001000FFF74B
:1044700067FB0300180003B000BDC0460000000049
:1044800000B585B00390029101921A006B46023389
:104490001A80039B303318006B4602331B88019A45
:1044A0000299FFF7B5FC0300180005B000BDC04637
:1044B00000B585B00390029101921A006B46023359
:1044C0001A80039B0C3318006B4602331B88019A39
:1044D0000299FFF785FB0300180005B000BDC04638
:1044E00010B500F015FDC04610BDC046000000002C
:1044F00000B587B0059004910392059B134A1A609A
:10450000059B04331800FFF70BFF059B01221A726D
:10451000059B0C331800059B54331900049A059B26
:10452000009313008022FFF7ABFA059B303318008D
:10453000059BD4331900039A059B00931300802236
:10454000FFF7B6FBC04607B000BDC0468094000828
:1045500000B583B001900091019B002B03D1104B5B
:104560001800FEF73DF9FFF7CBFE019B1B7A012BEC
:1045700007D0019B1B7A022B03D0094B1800FEF7D2
:104580002FF9009A019B1100180000F001FD019B1A
:1045900002221A72FFF7BCFEC04603B000BDC0463F
:1045A000A0940008000000000000000000000000CF
:1045B00000B583B001900A006B4603331A70FEF712
:1045C00017FA019B002B03D1124B1800FEF708F9D4
:1045D000019B0C331800FFF783FE031E05D0019BDF
:1045E000043304211800FFF7ABFE019B0C331A00C3
:1045F0006B4603331B7819001000FFF769FA031E9E
:1046000005DA019B043380211800FFF799FEC046AC
:1046100003B000BDC09400080000000000000000CE
:1046200030B583B0019000911B4C019B9B081A4947
:10463000019A9208C0329200525801990320014019
:10464000C900FF2088400100C9431140009A900131
:10465000019A03252A40D200904002000A43C03349
:104660009B001A510C49019B5B09019A1F200240D3
:1046700001209040020060339B005A500649019B84
:104680005B09019A1F2002400120904002009B001C
:104690005A50C04603B030BD00E100E00000000009
:1046A000164B164A1268802149000A431A60144BBF
:1046B0001A6AC0239B001A4080239B009A4206D0AE
:1046C0000F4B802252021A620D4B00221A620C4BD1
:1046D0001A6A80231B0213400DD1094B084A126A43
:1046E000802189000A431A62054B054A126A80211B
:1046F00009020A431A62C0467047C0460070004073
:104700000010024000000000000000000000000057
:1047100010B5134B9B6A124B012252429A62104B06
:1047200000229A620E4B1B690D4B012252421A6104
:104730000B4B00221A610A4B094AD26809490A4305
:10474000DA60074B0022DA60054B054AD269802106
:1047500049050A43DA61FFF7A3FFC04610BDC04612
:1047600000100240FFFFBFFF00000000000000003B
:10477000364B364A126801210A431A60C046334B51
:104780001B6802221340FAD0304B304A5268032192
:104790008A435A602D4B2D4A52685A60C0462B4BB3
:1047A0005B680C221340FAD1284B284A1268F92181
:1047B0000A401A60254B00225A60244B234A526B50
:1047C00001210A435A63C046204B5B6B022213400F
:1047D000FAD01E4B1D4A526A01210A435A62C04652
:1047E0001A4B5B6A02221340FAD0184B0022DA629D
:1047F000164BA02292035A60144B00221A63134BEB
:10480000124A1268802149040A431A60C0460F4BBD
:104810001A6880239B041340F9D00D4B11221A60B3
:104820000A4B0A4A526802210A435A60C046074BA3
:104830005B680C221340082BF9D1044B034A9269A0
:1048400001210A439A61C0467047C04600100240E9
:1048500000200240000000000000000000000000F6
:1048600072B6C0467047C04600000000000000005D
:1048700062B6C0467047C04600000000000000005D
:1048800010B5FFF7EDFFC04610BDC04600000000A8
:1048900010B5FFF7EDFFC04610BDC0460000000098
:1048A00010B5FFF7EDFFFEF733F8C04610BDC04668
:1048B00010B5FEF745F8FFF7EBFFC04610BDC04648
:1048C00010B5FFF7EDFFC04610BDC0460000000068
:1048D00010B5FFF7EDFFC04610BDC0460000000058
:1048E00010B5FDF78DFFC04610BDC04600000000AA
:1048F00000B583B073460193FEF73AF80B4B1B6982
:104900000222134008D0094B00221A61FFF7D8FF9A
:10491000FFF7E6FFFFF7DCFFFEF74AF8019B180000
:10492000FFF7BEFBC04603B000BDC0460004004018
:1049300010B5154B144AD26902210A43DA61134BB0
:10494000124A926802210A439A60114B114A9A62F4
:104950000F4B114ADA620E4B00229A610C4B002277
:104960005A630B4B0022DA60094B00225A60084B55
:1049700001225A61064B01221A6008211020FFF71C
:104980004FFEC04610BDC046001002400058014016
:1049900000040040BF120000FFFF00000000000004
:1049A00082B001900091009B5A68019B5A60009B65
:1049B0009A68019B9A60009BDA68019BDA60009B11
:1049C0001A69019B5A61009B5A69019B1A62009BFC
:1049D0009A69019B5A62009B1A68019B1A60C04643
:1049E00002B070470000000000000000000000005E
:1049F00000B583B00190134B124A52699C21C90340
:104A00000A435A61019A9023DB0511001800FFF751
:104A1000C7FF019B1C330C4A19001000FFF7C0FFB1
:104A2000019B3833094A19001000FFF7B9FF019BB9
:104A30005433074A19001000FFF7B2FFC04603B015
:104A400000BDC046001002400004004800080048B5
:104A500000140048000000000000000000000000FA
:104A60008EB0039002910192019B032213400D939B
:104A7000019B9B08012213400C93019BDB0803223E
:104A800013400B93019B5B09032213400A93019B84
:104A9000DB090F221340089300230993029B012294
:104AA000134000D179E0099B072213409B00089A2C
:104AB0009A40130007930122099B9A401300069322
:104AC000099B5B0003229A4013000593099B072270
:104AD00013409B000F229A4013000493039B5B68D2
:104AE000069AD2431A400C9B1A43039B5A60039BBD
:104AF0009B68059AD2431A400B9B1A43039B9A600A
:104B0000039BDB68059AD2431A400A9B1A43039B16
:104B1000DA60019B03221340022B1FD1099B072B54
:104B200009D8039B1B6A049AD2431A40079B1A4375
:104B3000039B1A6208E0039B5B6A049AD2431A4003
:104B4000079B1A43039B5A62039B1B68059AD24337
:104B50001A400D9B1A43039B1A601EE0039B1B68BF
:104B6000059AD2431A400D9B1A43039B1A60099B76
:104B7000072B09D8039B1B6A049AD2431A40079B50
:104B80001A43039B1A6208E0039B5B6A049AD243B0
:104B90001A40079B1A43039B5A62029B5B080293CD
:104BA000029B002B0FD00C9B5B000C930B9B9B007C
:104BB0000B930A9B9B000A930D9B9B000D93099BF3
:104BC000013309936AE7C0460EB070470000000049
:104BD00072B6C0467047C0460000000000000000EA
:104BE00062B6C0467047C0460000000000000000EA
:104BF00010B5FFF7EDFFC04610BDC0460000000035
:104C000010B5FFF7EDFFC04610BDC0460000000024
:104C100010B5FFF7EDFFFDF77BFEC04610BDC046A7
:104C200010B5FDF78DFEFFF7EBFFC04610BDC04687
:104C300000B583B00190FDF7DBFE019B5A69019B33
:104C40009B699A4205D1019B9B68002B01D00123EF
:104C500000E000231A1C01231340DBB2180003B04C
:104C600000BDC04600000000000000000000000081
:104C700010B5FFF7CDFFC04610BDC04600000000D4
:104C800010B5FFF7CDFFC04610BDC04600000000C4
:104C900000B583B001900091009A019B11001800AB
:104CA000FEF7C6FDC04603B000BDC04600000000D0
:104CB00000B585B001900091019AAA235B00D358FA
:104CC0000393019AAC235B00D258009B1B68190028
:104CD0001000FBF785FA03001A00039BDA60009BC3
:104CE0009A68039B5A60009BDB6801221A43039B6E
:104CF0009A60009B5B682E22FF321A43039B1A6066
:104D0000039B012252421A62C04605B000BDC04654
:104D100000B585B00190009100230393009B082209
:104D2000134003D0039B802213430393009B012273
:104D3000134003D0039B202213430393009B0222C2
:104D4000134003D0039B402213430393009B042290
:104D5000134004D0039B8022520013430393FFF7B8
:104D600087FF019B0433039A11001800FFF790FF9F
:104D7000FFF786FFC04605B000BDC046000000003A
:104D800000B587B00190019AAA235B00D358059320
:104D9000059B1B680493059BDB690393059B039AA2
:104DA0001A62039B0F22134005D0039A019B110046
:104DB0001800FFF7ADFF039B202213400CD0FFF734
:104DC00057FF059B9B8C9BB2DAB2019B1100180028
:104DD000FFF7EEFBFFF754FF049B8022134023D024
:104DE000039B802213401FD0FFF742FF019B30330B
:104DF0001800FEF7D5FF03000293029B002B0DDA8B
:104E0000019B043308211800FFF742FF049BC022D6
:104E1000934340221A43059B1A6003E0029B9AB217
:104E2000059B1A85FFF72CFF039B4022134016D0E9
:104E3000FFF71EFF019B30331800FFF7F9FE031E3A
:104E400005D0019B043310211800FFF721FF049BBC
:104E5000402293431A00059B1A60FFF711FFC046DA
:104E600007B000BD000000000000000000000000CE
:104E700082B00190044B044A126880210A431A60F0
:104E8000C04602B07047C046004400400000000029
:104E900082B00190044B044A126880210A431A60D0
:104EA000C04602B07047C0460050004000000000FD
:104EB00000B583B073460193FDF75AFD064B180009
:104EC000FFF75EFFFDF774FD019B1800FFF7E8F8A0
:104ED000C04603B000BDC046E41C00200000000036
:104EE00000B583B073460193FDF742FD064B1800F1
:104EF000FFF746FFFDF75CFD019B1800FFF7D0F8B8
:104F0000C04603B000BDC046881B00200000000062
:104F100010B5154A154B00211800FFF7E9FA134A9E
:104F2000AA235B001249D150104AAC235B001149FF
:104F3000D15002211C20FFF773FB0F4A0F4B0021B9
:104F40001800FFF7D5FA0D4AAA235B000C49D1508F
:104F50000A4AAC235B000749D1500C211D20FFF702
:104F60005FFBC04610BDC046714E0008E41C002027
:104F700000440040006CDC02914E0008881B0020B9
:104F80000050004000000000000000000000000091
:104F900000B583B001900091009B002B01D1124B12
:104FA0000093019B1B7A012B15D1019A0F4B9A425A
:104FB00006D10F4B0E4AD269802189020A43DA6179
:104FC000019A0C4B9A4206D1094B094AD2698021B9
:104FD00049030A43DA61009A019B11001800FFF7A8
:104FE00067FEC04603B000BDD0940008E41C00205A
:104FF00000100240881B002000000000000000009C
:1050000010B5FFF7B5FBC04610BDC046000000005C
:10501000C0467047000000000000000000000000D3
:1050200072B6C0467047C046000000000000000095
:1050300062B6C0467047C046000000000000000095
:10504000024B5B6A9BB218007047C04600040040E8
:1050500010B5FFF7F5FF0300180010BD00000000B9
:1050600010B5FFF7DDFFFDF723FCC04610BDC046BD
:1050700010B5FDF735FC0A4B1A68094B9A420BD064
:10508000074B9B699A68064B1B689B689A4203D240
:10509000044B1800FDF7A4FBFFF7CAFFC04610BD84
:1050A00020160020509500080000000000000000BD
:1050B00010B5FFF7CDFF0300180010BD0000000081
:1050C00010B582B0FFF7CCFF6B469C1DFFF7F0FFD9
:1050D00003002380FFF7CCFF6B4606331B881800C4
:1050E00002B010BD00000000000000000000000041
:1050F00010B5074A074B08211800FFF7B1FC044A16
:10510000044B10211800FFF7ABFCC04610BDC04691
:10511000020200000004004800000000000000003F
:1051200000B587B002006B4606331A806B46063323
:105130001A880E4903AB180000F0FAF80300059333
:10514000059A0A4902AB180000F0F2F8084B02A9D0
:1051500008480122FEF75CFE059A054B03A90548A5
:10516000FEF756FEC04607B000BDC046D09100080D
:10517000FFFF0000B81B002000000000000000003E
:1051800010B580231B02074801221900FFF768FCB5
:105190008023DB01034820221900FFF761FCC04691
:1051A00010BDC046000400480000000000000000E0
:1051B00010B582B01F4B204A1A830120FEF768FA0F
:1051C0001C4B1D4A5A831B4B1A698023DB01134079
:1051D0005A1E9341DBB2002BF5D06B469C1DFFF7A6
:1051E0006FFF03002380134B1A698023DB011340F8
:1051F0005A1E9341DBB2002B00D0F4E7FFF760FFAB
:1052000003001A006B4606331B88D31A1A000B4B97
:1052100053430B4A944663440A491800FAF7E0FFE7
:1052200003001A0001AB1A8001AB1B88180002B002
:1052300010BDC046000400480080FFFF40420F0040
:105240000F270000102700000000000000000000F1
:1052500010B582B0FEF75CFFFDF77AFAFFF748FF62
:10526000FFF78EFF0A4A0B4B11001800FFF770F989
:105270006B469C1DFFF79CFF030023806B460633A3
:105280001B881800FFF74CFF6420FEF701FAEFE7D8
:10529000000C0020881B002000000000000000001F
:1052A000F0B505000F2A2FD90B0003439B0734D11B
:1052B00016000C000300103E350901352D0145197B
:1052C00027681F6067685F60A7689F60E7681034A1
:1052D000DF6010339D42F3D10F239E4310368519B2
:1052E00089191340032B1AD91E1F0023B408013457
:1052F000A400CF58EF500433A342FAD10324A643AD
:10530000331D2240C918ED18002A05D00023CC5CBB
:10531000EC5401339342FAD1F0BD0500F6E71A00D0
:10532000F2E7C0460000000000000000000000009E
:105330000EB410B59DB002A9029008610B488224FA
:1053400088604861012040421FABC881084804CBF7
:10535000A400006801938C8100F012F80023029AE7
:1053600013701DB010BC08BC03B01847FFFFFF7FCF
:10537000100C0020000000000000000000000000F1
:10538000F0B5DE46454657464E46E0B5C3B00D0083
:10539000069114000F93099002F09AFC036818001C
:1053A000199303F035FB1890AB891B0605D52B69C3
:1053B0000793002B01D101F063F832AB2593002352
:1053C000A34625AFBB607B6014931593169332AE52
:1053D00017931A930A935B461B785C46002B1CD0EC
:1053E000252B02D119E0252B03D001342378002B83
:1053F000F9D15B46E51A10D05B463360BB68756037
:105400005B19BB607B6801337B60072B2EDC0836A1
:105410000A9B9C46AC4463460A932378002B2ED00B
:10542000631C9B46002316AAD37701225242924660
:10543000002200210B922032914620326378884668
:10544000002000249446594601311A00203A582A77
:1054500000D9FDE2D74D9200AA5897460B9B0F92B8
:105460005B420B9304231C430B78EDE73A0006994B
:10547000099803F005FB002809D132AEC8E7BB68E4
:10548000002B04D03A000699099803F0F9FA069B1C
:105490009B895B0601D501F0CEF80A9843B03CBC6D
:1054A00090469946A246AB46F0BD01220B78904645
:1054B0002B20C9E74B1C9B460B782A2B01D101F00E
:1054C00020FA1A000021303A8A465946092ABCD8E7
:1054D0000300110050465A469A46A34683001B1803
:1054E00014785B0058182100531C30391A00092920
:1054F000F4D9524619008246230010005C46A4E706
:1055000080231C430B789FE78B464146129300296A
:1055100001D001F028FA10231C430F9AA30601D5ED
:1055200000F088FEE30601D500F080FD630601D49B
:1055300000F07CFD0021535E0C930432DB170D93C9
:105540000F9201D500F086FE0C990D9A080016AB5B
:10555000DB7F10439846020001235146013100D100
:10556000FFE08021200088430890002A00D0FCE062
:105570005246002A01D000F02CFC002B01D000F094
:1055800004FD012032AB20400E90119308D0272358
:10559000302128AAD15416AA944648336344119363
:1055A00053460E9A0793924500DA0792002313930D
:1055B0004346002B02D0079B013307930223089A2E
:1055C0001A40914602D0079B023307938423089A1E
:1055D0001A40109200D04DE20B9B079A9C1A002CA7
:1055E00000DC47E27449BA687B688846102C1FDDEE
:1055F00031001025464603E0103C0831102C15DD23
:10560000103201330E604D60BA607B60072BF3DD12
:105610003A000699099803F033FA002800D036E7DB
:10562000103CBA687B6832A9102CE9DCB0460E0049
:10563000414674600133A4183160BC607B60072B65
:1056400001DD00F0A8FC16ABDB7F0836984612E2BD
:105650008B4641461293002901D001F080F90722C0
:105660000F9B07339343013294469C4462460F924A
:105670001A6815925B6801221693169B159D5B00B4
:105680005B08984652424D4B28004146FCF740FDCE
:10569000002801D000F0FDFD0122484B52422800B5
:1056A0004146FAF745FF002801D000F0F2FD002244
:1056B000002315981699FAF731FF002801D001F060
:1056C00022F816ABDB7F9846129B472B01DD00F0DA
:1056D000C7FE3B4B119380239C43089403230793FD
:1056E0000E9300239A46139362E70022303B150085
:1056F0001A000300079408002C009B46A3001C1905
:105700000378640014191A000131303A0800092A9C
:10571000F4D90B945846079C97E608231C430B7852
:1057200092E6129310231C438B46A30600D57BE11F
:10573000E30601D500F07EFC630601D400F07AFC9C
:105740000F9B1A880C92002204330F9300230D92B2
:105750000C9A002116A8C17788465146013100D025
:10576000FFE6002A00D135E30894012B00D1E5E3E0
:10577000022B00D062E3179C0F20A146B44632AB47
:1057800019000C9A0D9B04004D4614402C5D1E0719
:10579000150901392E430C701C0923003400320016
:1057A0001C43F0D10C920D9332AB5B1A11916646FB
:1057B0000E93F5E66095000820970008FFFFEF7F45
:1057C000D0960008129310231C438B46A30600D5E5
:1057D00011E1E30601D500F031FC630601D400F0CD
:1057E0002DFC0F9B1A880C92002204330D920F930C
:1057F0000C9A0123ADE78B4641461293002901D054
:1058000001F092F8B84B1793A30600D5ABE0E3067E
:1058100001D500F007FC630601D400F003FC0F9BE8
:105820001A880C92002204330D920F93E30700D4E0
:10583000A9E00C990D9A0B0013431A000223002AC9
:1058400000D186E730201EA9087048256846401917
:1058500000781C4348707CE78B464146002901D004
:1058600001F066F8A30601D500F0E9FDE30601D5D5
:1058700000F09BFD630601D400F097FD69460F9B85
:10588000098D1A680433079211800F93A3E54B46E4
:105890001C430B78D8E512930F9B8B461D1D1B688C
:1058A00016A91A0011930023CB77002A01D100F02A
:1058B000FBFE5346013301D100F038FE5246002171
:1058C000119802F0CDFC002801D100F054FF119B8B
:1058D000C31A1A000E93DB43DB171A4016ABDB7FAB
:1058E0000792984600230F9508949A4613935FE613
:1058F0000F9A1293136828AD07936B461B7F8B4654
:105900002B70002316A9CB77130004330F930023C9
:1059100008949846013307930E93002311959A46F5
:1059200013934BE68B4641461293002900D1F4E5D0
:1059300016ABD877F1E563461C430B7884E50B780A
:105940006C2B01D100F086FD102214437CE58B46C0
:1059500041461293002901D000F0DEFF634B1793FC
:10596000A30600D453E707220F9B0733934301326A
:1059700094469C4462460F921A685B680C920D93A1
:10598000E30700D555E70C990D9A08001043022350
:105990000200DEE68B460F9930220B680C93002341
:1059A0000D9302331C431EAB1A7048325A700B0021
:1059B00004330F934D4B129217930C9A0223C8E6AF
:1059C00001231C430B783FE50F9B1A1D1B680B93AB
:1059D000002B00DA42E50B780F9235E50B780028B2
:1059E00000D031E50122203090462DE58B46129300
:1059F000A30600D4EDE607220F9B07339343013241
:105A000094469C4462460F921A685B6811001A0023
:105A1000080010430C910D920123020099E68B4679
:105A20001293A30600D483E607220F9B0733934308
:105A3000013294469C4462460F921A685B681100DA
:105A40001A00080010430C910D920023020080E61A
:105A50008B4641461293002901D000F06DFF129B46
:105A6000002B00D10BE528AD2B70002316AAD377AD
:105A700008944EE7BC684346002B0FD016AA1F239C
:105A8000944663443360012373607B6801340133BF
:105A9000BC607B60072B00DDB3E108364B46002B72
:105AA0000CD01EAB3360022373607B680234013379
:105AB000BC607B60072B00DDAFE10836109B802BBC
:105AC00000D120E153460E9A9D1A002D3CDD084A74
:105AD0007B689146102D2CDD102221009246099CF6
